{
  "_format": "hh-sol-artifact-1",
  "contractName": "CustomDex",
  "sourceName": "contracts/CustomDex.sol",
  "abi": [
    {
      "inputs": [],
      "stateMutability": "nonpayable",
      "type": "constructor"
    },
    {
      "inputs": [],
      "name": "_historyIndex",
      "outputs": [
        {
          "internalType": "uint256",
          "name": "",
          "type": "uint256"
        }
      ],
      "stateMutability": "view",
      "type": "function"
    },
    {
      "inputs": [],
      "name": "getAllHistory",
      "outputs": [
        {
          "components": [
            {
              "internalType": "uint256",
              "name": "historyId",
              "type": "uint256"
            },
            {
              "internalType": "string",
              "name": "tokenA",
              "type": "string"
            },
            {
              "internalType": "string",
              "name": "tokenB",
              "type": "string"
            },
            {
              "internalType": "uint256",
              "name": "inputValue",
              "type": "uint256"
            },
            {
              "internalType": "uint256",
              "name": "outputValue",
              "type": "uint256"
            },
            {
              "internalType": "address",
              "name": "userAddress",
              "type": "address"
            }
          ],
          "internalType": "struct CustomDex.History[]",
          "name": "",
          "type": "tuple[]"
        }
      ],
      "stateMutability": "view",
      "type": "function"
    },
    {
      "inputs": [
        {
          "internalType": "string",
          "name": "tokenName",
          "type": "string"
        },
        {
          "internalType": "address",
          "name": "_address",
          "type": "address"
        }
      ],
      "name": "getBalance",
      "outputs": [
        {
          "internalType": "uint256",
          "name": "",
          "type": "uint256"
        }
      ],
      "stateMutability": "view",
      "type": "function"
    },
    {
      "inputs": [],
      "name": "getEthBalance",
      "outputs": [
        {
          "internalType": "uint256",
          "name": "",
          "type": "uint256"
        }
      ],
      "stateMutability": "view",
      "type": "function"
    },
    {
      "inputs": [
        {
          "internalType": "string",
          "name": "tokenName",
          "type": "string"
        }
      ],
      "name": "getName",
      "outputs": [
        {
          "internalType": "string",
          "name": "",
          "type": "string"
        }
      ],
      "stateMutability": "view",
      "type": "function"
    },
    {
      "inputs": [
        {
          "internalType": "string",
          "name": "tokenName",
          "type": "string"
        }
      ],
      "name": "getTokenAddress",
      "outputs": [
        {
          "internalType": "address",
          "name": "",
          "type": "address"
        }
      ],
      "stateMutability": "view",
      "type": "function"
    },
    {
      "inputs": [
        {
          "internalType": "string",
          "name": "tokenName",
          "type": "string"
        }
      ],
      "name": "getTotalSupply",
      "outputs": [
        {
          "internalType": "uint256",
          "name": "",
          "type": "uint256"
        }
      ],
      "stateMutability": "view",
      "type": "function"
    },
    {
      "inputs": [
        {
          "internalType": "string",
          "name": "tokenName",
          "type": "string"
        }
      ],
      "name": "swapEthToToken",
      "outputs": [
        {
          "internalType": "uint256",
          "name": "",
          "type": "uint256"
        }
      ],
      "stateMutability": "payable",
      "type": "function"
    },
    {
      "inputs": [
        {
          "internalType": "string",
          "name": "tokenName",
          "type": "string"
        },
        {
          "internalType": "uint256",
          "name": "_amount",
          "type": "uint256"
        }
      ],
      "name": "swapTokenToEth",
      "outputs": [
        {
          "internalType": "uint256",
          "name": "",
          "type": "uint256"
        }
      ],
      "stateMutability": "nonpayable",
      "type": "function"
    },
    {
      "inputs": [
        {
          "internalType": "string",
          "name": "srcTokenName",
          "type": "string"
        },
        {
          "internalType": "string",
          "name": "destTokenName",
          "type": "string"
        },
        {
          "internalType": "uint256",
          "name": "_amount",
          "type": "uint256"
        }
      ],
      "name": "swapTokenToToken",
      "outputs": [],
      "stateMutability": "nonpayable",
      "type": "function"
    },
    {
      "inputs": [
        {
          "internalType": "string",
          "name": "",
          "type": "string"
        }
      ],
      "name": "tokenInstanceMap",
      "outputs": [
        {
          "internalType": "contract ERC20",
          "name": "",
          "type": "address"
        }
      ],
      "stateMutability": "view",
      "type": "function"
    },
    {
      "inputs": [
        {
          "internalType": "uint256",
          "name": "",
          "type": "uint256"
        }
      ],
      "name": "tokens",
      "outputs": [
        {
          "internalType": "string",
          "name": "",
          "type": "string"
        }
      ],
      "stateMutability": "view",
      "type": "function"
    }
  ],
  "bytecode": "0x60806040526040518060a001604052806040518060400160405280600a81526020017f546574686572205553440000000000000000000000000000000000000000000081525081526020016040518060400160405280600381526020017f424e42000000000000000000000000000000000000000000000000000000000081525081526020016040518060400160405280600481526020017f54524f4e0000000000000000000000000000000000000000000000000000000081525081526020016040518060400160405280600b81526020017f4d4154494320546f6b656e00000000000000000000000000000000000000000081525081526020016040518060400160405280600781526020017f556e69737761700000000000000000000000000000000000000000000000000081525081525060009060056200014692919062000281565b503480156200015457600080fd5b5060005b6000805490508110156200027a5760008082815481106200017e576200017d62000414565b5b90600052602060002001600083815481106200019f576200019e62000414565b5b90600052602060002001604051620001b790620002e8565b620001c49291906200055a565b604051809103906000f080158015620001e1573d6000803e3d6000fd5b50905080600160008481548110620001fe57620001fd62000414565b5b906000526020600020016040516200021791906200062b565b908152602001604051809103902060006101000a81548173ffffffffffffffffffffffffffffffffffffffff021916908373ffffffffffffffffffffffffffffffffffffffff16021790555050808062000271906200067d565b91505062000158565b50620006cb565b828054828255906000526020600020908101928215620002d5579160200282015b82811115620002d4578251829080519060200190620002c3929190620002f6565b5091602001919060010190620002a2565b5b509050620002e4919062000387565b5090565b6118f9806200221a83390190565b828054620003049062000472565b90600052602060002090601f01602090048101928262000328576000855562000374565b82601f106200034357805160ff191683800117855562000374565b8280016001018555821562000374579182015b828111156200037357825182559160200191906001019062000356565b5b509050620003839190620003af565b5090565b5b80821115620003ab5760008181620003a19190620003ce565b5060010162000388565b5090565b5b80821115620003ca576000816000905550600101620003b0565b5090565b508054620003dc9062000472565b6000825580601f10620003f0575062000411565b601f016020900490600052602060002090810190620004109190620003af565b5b50565b7f4e487b7100000000000000000000000000000000000000000000000000000000600052603260045260246000fd5b7f4e487b7100000000000000000000000000000000000000000000000000000000600052602260045260246000fd5b600060028204905060018216806200048b57607f821691505b60208210811415620004a257620004a162000443565b5b50919050565b600082825260208201905092915050565b60008190508160005260206000209050919050565b60008154620004dd8162000472565b620004e98186620004a8565b945060018216600081146200050757600181146200051a5762000551565b60ff198316865260208601935062000551565b6200052585620004b9565b60005b83811015620005495781548189015260018201915060208101905062000528565b808801955050505b50505092915050565b60006040820190508181036000830152620005768185620004ce565b905081810360208301526200058c8184620004ce565b90509392505050565b600081905092915050565b60008154620005af8162000472565b620005bb818662000595565b94506001821660008114620005d95760018114620005eb5762000622565b60ff1983168652818601935062000622565b620005f685620004b9565b60005b838110156200061a57815481890152600182019150602081019050620005f9565b838801955050505b50505092915050565b6000620006398284620005a0565b915081905092915050565b7f4e487b7100000000000000000000000000000000000000000000000000000000600052601160045260246000fd5b6000819050919050565b60006200068a8262000673565b91507fffffffffffffffffffffffffffffffffffffffffffffffffffffffffffffffff821415620006c057620006bf62000644565b5b600182019050919050565b611b3f80620006db6000396000f3fe6080604052600436106100a75760003560e01c806370ed0ada1161006457806370ed0ada146101e957806389f4b31714610214578063a93325ed14610251578063bf015aae1461028e578063c4091236146102b7578063db6f63ee146102f4576100a7565b806319b3c12d146100ac57806339c5891a146100d75780634f64b2be146101025780635463109e1461013f57806363fcf7c51461017c5780636932cf81146101ac575b600080fd5b3480156100b857600080fd5b506100c1610331565b6040516100ce9190610f90565b60405180910390f35b3480156100e357600080fd5b506100ec610337565b6040516100f991906111e6565b60405180910390f35b34801561010e57600080fd5b5061012960048036038101906101249190611248565b6105bc565b60405161013691906112bf565b60405180910390f35b34801561014b57600080fd5b5061016660048036038101906101619190611416565b610668565b6040516101739190610f90565b60405180910390f35b61019660048036038101906101919190611416565b61071e565b6040516101a39190610f90565b60405180910390f35b3480156101b857600080fd5b506101d360048036038101906101ce9190611416565b61084c565b6040516101e091906112bf565b60405180910390f35b3480156101f557600080fd5b506101fe610907565b60405161020b9190610f90565b60405180910390f35b34801561022057600080fd5b5061023b6004803603810190610236919061148b565b61090f565b6040516102489190610f90565b60405180910390f35b34801561025d57600080fd5b5061027860048036038101906102739190611416565b6109d1565b6040516102859190611546565b60405180910390f35b34801561029a57600080fd5b506102b560048036038101906102b09190611561565b610a1a565b005b3480156102c357600080fd5b506102de60048036038101906102d99190611416565b610bb7565b6040516102eb91906115fb565b60405180910390f35b34801561030057600080fd5b5061031b60048036038101906103169190611616565b610bff565b6040516103289190610f90565b60405180910390f35b60025481565b6060600060025490506000808267ffffffffffffffff81111561035d5761035c6112eb565b5b60405190808252806020026020018201604052801561039657816020015b610383610e88565b81526020019060019003908161037b5790505b50905060005b838110156105b25760006001826103b391906116a1565b90506000600360008381526020019081526020016000209050806040518060c0016040529081600082015481526020016001820180546103f290611726565b80601f016020809104026020016040519081016040528092919081815260200182805461041e90611726565b801561046b5780601f106104405761010080835404028352916020019161046b565b820191906000526020600020905b81548152906001019060200180831161044e57829003601f168201915b5050505050815260200160028201805461048490611726565b80601f01602080910402602001604051908101604052809291908181526020018280546104b090611726565b80156104fd5780601f106104d2576101008083540402835291602001916104fd565b820191906000526020600020905b8154815290600101906020018083116104e057829003601f168201915b5050505050815260200160038201548152602001600482015481526020016005820160009054906101000a900473ffffffffffffffffffffffffffffffffffffffff1673ffffffffffffffffffffffffffffffffffffffff1673ffffffffffffffffffffffffffffffffffffffff168152505084868151811061058357610582611758565b5b602002602001018190525060018561059b91906116a1565b9450505080806105aa90611787565b91505061039c565b5080935050505090565b600081815481106105cc57600080fd5b9060005260206000200160009150905080546105e790611726565b80601f016020809104026020016040519081016040528092919081815260200182805461061390611726565b80156106605780601f1061063557610100808354040283529160200191610660565b820191906000526020600020905b81548152906001019060200180831161064357829003601f168201915b505050505081565b600060018260405161067a919061180c565b908152602001604051809103902060009054906101000a900473ffffffffffffffffffffffffffffffffffffffff1673ffffffffffffffffffffffffffffffffffffffff166318160ddd6040518163ffffffff1660e01b8152600401602060405180830381865afa1580156106f3573d6000803e3d6000fd5b505050506040513d601f19601f820116820180604052508101906107179190611838565b9050919050565b6000803490506000612710826107349190611865565b9050600184604051610746919061180c565b908152602001604051809103902060009054906101000a900473ffffffffffffffffffffffffffffffffffffffff1673ffffffffffffffffffffffffffffffffffffffff1663a9059cbb33836040518363ffffffff1660e01b81526004016107af9291906118bf565b6020604051808303816000875af11580156107ce573d6000803e3d6000fd5b505050506040513d601f19601f820116820180604052508101906107f29190611920565b6107fb57600080fd5b60006040518060400160405280600581526020017f4574686572000000000000000000000000000000000000000000000000000000815250905061084185828585610dba565b819350505050919050565b606060018260405161085e919061180c565b908152602001604051809103902060009054906101000a900473ffffffffffffffffffffffffffffffffffffffff1673ffffffffffffffffffffffffffffffffffffffff166306fdde036040518163ffffffff1660e01b8152600401600060405180830381865afa1580156108d7573d6000803e3d6000fd5b505050506040513d6000823e3d601f19601f8201168201806040525081019061090091906119bd565b9050919050565b600047905090565b6000600183604051610921919061180c565b908152602001604051809103902060009054906101000a900473ffffffffffffffffffffffffffffffffffffffff1673ffffffffffffffffffffffffffffffffffffffff166370a08231836040518263ffffffff1660e01b815260040161098891906115fb565b602060405180830381865afa1580156109a5573d6000803e3d6000fd5b505050506040513d601f19601f820116820180604052508101906109c99190611838565b905092915050565b6001818051602081018201805184825260208301602085012081835280955050505050506000915054906101000a900473ffffffffffffffffffffffffffffffffffffffff1681565b600183604051610a2a919061180c565b908152602001604051809103902060009054906101000a900473ffffffffffffffffffffffffffffffffffffffff1673ffffffffffffffffffffffffffffffffffffffff166323b872dd3330846040518463ffffffff1660e01b8152600401610a9593929190611a06565b6020604051808303816000875af1158015610ab4573d6000803e3d6000fd5b505050506040513d601f19601f82011682018060405250810190610ad89190611920565b610ae157600080fd5b600182604051610af1919061180c565b908152602001604051809103902060009054906101000a900473ffffffffffffffffffffffffffffffffffffffff1673ffffffffffffffffffffffffffffffffffffffff1663a9059cbb33836040518363ffffffff1660e01b8152600401610b5a9291906118bf565b6020604051808303816000875af1158015610b79573d6000803e3d6000fd5b505050506040513d601f19601f82011682018060405250810190610b9d9190611920565b610ba657600080fd5b610bb283838384610dba565b505050565b6000600182604051610bc9919061180c565b908152602001604051809103902060009054906101000a900473ffffffffffffffffffffffffffffffffffffffff169050919050565b60008061271083610c109190611a6c565b9050600081905080471015610c5a576040517f08c379a0000000000000000000000000000000000000000000000000000000008152600401610c5190611ae9565b60405180910390fd5b3373ffffffffffffffffffffffffffffffffffffffff166108fc829081150290604051600060405180830381858888f19350505050158015610ca0573d6000803e3d6000fd5b50600185604051610cb1919061180c565b908152602001604051809103902060009054906101000a900473ffffffffffffffffffffffffffffffffffffffff1673ffffffffffffffffffffffffffffffffffffffff166323b872dd3330876040518463ffffffff1660e01b8152600401610d1c93929190611a06565b6020604051808303816000875af1158015610d3b573d6000803e3d6000fd5b505050506040513d601f19601f82011682018060405250810190610d5f9190611920565b610d6857600080fd5b60006040518060400160405280600581526020017f45746865720000000000000000000000000000000000000000000000000000008152509050610dae86828585610dba565b81935050505092915050565b60026000815480929190610dcd90611787565b9190505550600060025490506000600360008381526020019081526020016000209050818160000181905550338160050160006101000a81548173ffffffffffffffffffffffffffffffffffffffff021916908373ffffffffffffffffffffffffffffffffffffffff16021790555085816001019080519060200190610e54929190610ed4565b5084816002019080519060200190610e6d929190610ed4565b50838160030181905550828160040181905550505050505050565b6040518060c001604052806000815260200160608152602001606081526020016000815260200160008152602001600073ffffffffffffffffffffffffffffffffffffffff1681525090565b828054610ee090611726565b90600052602060002090601f016020900481019282610f025760008555610f49565b82601f10610f1b57805160ff1916838001178555610f49565b82800160010185558215610f49579182015b82811115610f48578251825591602001919060010190610f2d565b5b509050610f569190610f5a565b5090565b5b80821115610f73576000816000905550600101610f5b565b5090565b6000819050919050565b610f8a81610f77565b82525050565b6000602082019050610fa56000830184610f81565b92915050565b600081519050919050565b600082825260208201905092915050565b6000819050602082019050919050565b610fe081610f77565b82525050565b600081519050919050565b600082825260208201905092915050565b60005b83811015611020578082015181840152602081019050611005565b8381111561102f576000848401525b50505050565b6000601f19601f8301169050919050565b600061105182610fe6565b61105b8185610ff1565b935061106b818560208601611002565b61107481611035565b840191505092915050565b600073ffffffffffffffffffffffffffffffffffffffff82169050919050565b60006110aa8261107f565b9050919050565b6110ba8161109f565b82525050565b600060c0830160008301516110d86000860182610fd7565b50602083015184820360208601526110f08282611046565b9150506040830151848203604086015261110a8282611046565b915050606083015161111f6060860182610fd7565b5060808301516111326080860182610fd7565b5060a083015161114560a08601826110b1565b508091505092915050565b600061115c83836110c0565b905092915050565b6000602082019050919050565b600061117c82610fab565b6111868185610fb6565b93508360208202850161119885610fc7565b8060005b858110156111d457848403895281516111b58582611150565b94506111c083611164565b925060208a0199505060018101905061119c565b50829750879550505050505092915050565b600060208201905081810360008301526112008184611171565b905092915050565b6000604051905090565b600080fd5b600080fd5b61122581610f77565b811461123057600080fd5b50565b6000813590506112428161121c565b92915050565b60006020828403121561125e5761125d611212565b5b600061126c84828501611233565b91505092915050565b600082825260208201905092915050565b600061129182610fe6565b61129b8185611275565b93506112ab818560208601611002565b6112b481611035565b840191505092915050565b600060208201905081810360008301526112d98184611286565b905092915050565b600080fd5b600080fd5b7f4e487b7100000000000000000000000000000000000000000000000000000000600052604160045260246000fd5b61132382611035565b810181811067ffffffffffffffff82111715611342576113416112eb565b5b80604052505050565b6000611355611208565b9050611361828261131a565b919050565b600067ffffffffffffffff821115611381576113806112eb565b5b61138a82611035565b9050602081019050919050565b82818337600083830152505050565b60006113b96113b484611366565b61134b565b9050828152602081018484840111156113d5576113d46112e6565b5b6113e0848285611397565b509392505050565b600082601f8301126113fd576113fc6112e1565b5b813561140d8482602086016113a6565b91505092915050565b60006020828403121561142c5761142b611212565b5b600082013567ffffffffffffffff81111561144a57611449611217565b5b611456848285016113e8565b91505092915050565b6114688161109f565b811461147357600080fd5b50565b6000813590506114858161145f565b92915050565b600080604083850312156114a2576114a1611212565b5b600083013567ffffffffffffffff8111156114c0576114bf611217565b5b6114cc858286016113e8565b92505060206114dd85828601611476565b9150509250929050565b6000819050919050565b600061150c6115076115028461107f565b6114e7565b61107f565b9050919050565b600061151e826114f1565b9050919050565b600061153082611513565b9050919050565b61154081611525565b82525050565b600060208201905061155b6000830184611537565b92915050565b60008060006060848603121561157a57611579611212565b5b600084013567ffffffffffffffff81111561159857611597611217565b5b6115a4868287016113e8565b935050602084013567ffffffffffffffff8111156115c5576115c4611217565b5b6115d1868287016113e8565b92505060406115e286828701611233565b9150509250925092565b6115f58161109f565b82525050565b600060208201905061161060008301846115ec565b92915050565b6000806040838503121561162d5761162c611212565b5b600083013567ffffffffffffffff81111561164b5761164a611217565b5b611657858286016113e8565b925050602061166885828601611233565b9150509250929050565b7f4e487b7100000000000000000000000000000000000000000000000000000000600052601160045260246000fd5b60006116ac82610f77565b91506116b783610f77565b9250827fffffffffffffffffffffffffffffffffffffffffffffffffffffffffffffffff038211156116ec576116eb611672565b5b828201905092915050565b7f4e487b7100000000000000000000000000000000000000000000000000000000600052602260045260246000fd5b6000600282049050600182168061173e57607f821691505b60208210811415611752576117516116f7565b5b50919050565b7f4e487b7100000000000000000000000000000000000000000000000000000000600052603260045260246000fd5b600061179282610f77565b91507fffffffffffffffffffffffffffffffffffffffffffffffffffffffffffffffff8214156117c5576117c4611672565b5b600182019050919050565b600081905092915050565b60006117e682610fe6565b6117f081856117d0565b9350611800818560208601611002565b80840191505092915050565b600061181882846117db565b915081905092915050565b6000815190506118328161121c565b92915050565b60006020828403121561184e5761184d611212565b5b600061185c84828501611823565b91505092915050565b600061187082610f77565b915061187b83610f77565b9250817fffffffffffffffffffffffffffffffffffffffffffffffffffffffffffffffff04831182151516156118b4576118b3611672565b5b828202905092915050565b60006040820190506118d460008301856115ec565b6118e16020830184610f81565b9392505050565b60008115159050919050565b6118fd816118e8565b811461190857600080fd5b50565b60008151905061191a816118f4565b92915050565b60006020828403121561193657611935611212565b5b60006119448482850161190b565b91505092915050565b600061196061195b84611366565b61134b565b90508281526020810184848401111561197c5761197b6112e6565b5b611987848285611002565b509392505050565b600082601f8301126119a4576119a36112e1565b5b81516119b484826020860161194d565b91505092915050565b6000602082840312156119d3576119d2611212565b5b600082015167ffffffffffffffff8111156119f1576119f0611217565b5b6119fd8482850161198f565b91505092915050565b6000606082019050611a1b60008301866115ec565b611a2860208301856115ec565b611a356040830184610f81565b949350505050565b7f4e487b7100000000000000000000000000000000000000000000000000000000600052601260045260246000fd5b6000611a7782610f77565b9150611a8283610f77565b925082611a9257611a91611a3d565b5b828204905092915050565b7f4465782069732072756e6e696e67206c6f772062616c616e6365000000000000600082015250565b6000611ad3601a83611275565b9150611ade82611a9d565b602082019050919050565b60006020820190508181036000830152611b0281611ac6565b905091905056fea26469706673582212207b4ee3733ab6f09e02b3b10debcb771c034f6b6207ab53cfa52cb516a1482edf64736f6c634300080a003360806040523480156200001157600080fd5b50604051620018f9380380620018f9833981810160405281019062000037919062000459565b81818160039080519060200190620000519291906200020c565b5080600490805190602001906200006a9291906200020c565b5050506200008c336c0c9f2c9cd04674edea400000006200009460201b60201c565b50506200068a565b600073ffffffffffffffffffffffffffffffffffffffff168273ffffffffffffffffffffffffffffffffffffffff16141562000107576040517f08c379a0000000000000000000000000000000000000000000000000000000008152600401620000fe906200053f565b60405180910390fd5b6200011b600083836200020260201b60201c565b80600260008282546200012f91906200059a565b92505081905550806000808473ffffffffffffffffffffffffffffffffffffffff1673ffffffffffffffffffffffffffffffffffffffff168152602001908152602001600020600082825401925050819055508173ffffffffffffffffffffffffffffffffffffffff16600073ffffffffffffffffffffffffffffffffffffffff167fddf252ad1be2c89b69c2b068fc378daa952ba7f163c4a11628f55a4df523b3ef83604051620001e2919062000608565b60405180910390a3620001fe600083836200020760201b60201c565b5050565b505050565b505050565b8280546200021a9062000654565b90600052602060002090601f0160209004810192826200023e57600085556200028a565b82601f106200025957805160ff19168380011785556200028a565b828001600101855582156200028a579182015b82811115620002895782518255916020019190600101906200026c565b5b5090506200029991906200029d565b5090565b5b80821115620002b85760008160009055506001016200029e565b5090565b6000604051905090565b600080fd5b600080fd5b600080fd5b600080fd5b6000601f19601f8301169050919050565b7f4e487b7100000000000000000000000000000000000000000000000000000000600052604160045260246000fd5b6200032582620002da565b810181811067ffffffffffffffff82111715620003475762000346620002eb565b5b80604052505050565b60006200035c620002bc565b90506200036a82826200031a565b919050565b600067ffffffffffffffff8211156200038d576200038c620002eb565b5b6200039882620002da565b9050602081019050919050565b60005b83811015620003c5578082015181840152602081019050620003a8565b83811115620003d5576000848401525b50505050565b6000620003f2620003ec846200036f565b62000350565b905082815260208101848484011115620004115762000410620002d5565b5b6200041e848285620003a5565b509392505050565b600082601f8301126200043e576200043d620002d0565b5b815162000450848260208601620003db565b91505092915050565b60008060408385031215620004735762000472620002c6565b5b600083015167ffffffffffffffff811115620004945762000493620002cb565b5b620004a28582860162000426565b925050602083015167ffffffffffffffff811115620004c657620004c5620002cb565b5b620004d48582860162000426565b9150509250929050565b600082825260208201905092915050565b7f45524332303a206d696e7420746f20746865207a65726f206164647265737300600082015250565b600062000527601f83620004de565b91506200053482620004ef565b602082019050919050565b600060208201905081810360008301526200055a8162000518565b9050919050565b6000819050919050565b7f4e487b7100000000000000000000000000000000000000000000000000000000600052601160045260246000fd5b6000620005a78262000561565b9150620005b48362000561565b9250827fffffffffffffffffffffffffffffffffffffffffffffffffffffffffffffffff03821115620005ec57620005eb6200056b565b5b828201905092915050565b620006028162000561565b82525050565b60006020820190506200061f6000830184620005f7565b92915050565b7f4e487b7100000000000000000000000000000000000000000000000000000000600052602260045260246000fd5b600060028204905060018216806200066d57607f821691505b6020821081141562000684576200068362000625565b5b50919050565b61125f806200069a6000396000f3fe608060405234801561001057600080fd5b50600436106100a95760003560e01c80633950935111610071578063395093511461016857806370a082311461019857806395d89b41146101c8578063a457c2d7146101e6578063a9059cbb14610216578063dd62ed3e14610246576100a9565b806306fdde03146100ae578063095ea7b3146100cc57806318160ddd146100fc57806323b872dd1461011a578063313ce5671461014a575b600080fd5b6100b6610276565b6040516100c39190610b19565b60405180910390f35b6100e660048036038101906100e19190610bd4565b610308565b6040516100f39190610c2f565b60405180910390f35b61010461032b565b6040516101119190610c59565b60405180910390f35b610134600480360381019061012f9190610c74565b610335565b6040516101419190610c2f565b60405180910390f35b610152610364565b60405161015f9190610ce3565b60405180910390f35b610182600480360381019061017d9190610bd4565b61036d565b60405161018f9190610c2f565b60405180910390f35b6101b260048036038101906101ad9190610cfe565b6103a4565b6040516101bf9190610c59565b60405180910390f35b6101d06103ec565b6040516101dd9190610b19565b60405180910390f35b61020060048036038101906101fb9190610bd4565b61047e565b60405161020d9190610c2f565b60405180910390f35b610230600480360381019061022b9190610bd4565b6104f5565b60405161023d9190610c2f565b60405180910390f35b610260600480360381019061025b9190610d2b565b610518565b60405161026d9190610c59565b60405180910390f35b60606003805461028590610d9a565b80601f01602080910402602001604051908101604052809291908181526020018280546102b190610d9a565b80156102fe5780601f106102d3576101008083540402835291602001916102fe565b820191906000526020600020905b8154815290600101906020018083116102e157829003601f168201915b5050505050905090565b60008061031361059f565b90506103208185856105a7565b600191505092915050565b6000600254905090565b60008061034061059f565b905061034d858285610772565b6103588585856107fe565b60019150509392505050565b60006012905090565b60008061037861059f565b905061039981858561038a8589610518565b6103949190610dfb565b6105a7565b600191505092915050565b60008060008373ffffffffffffffffffffffffffffffffffffffff1673ffffffffffffffffffffffffffffffffffffffff168152602001908152602001600020549050919050565b6060600480546103fb90610d9a565b80601f016020809104026020016040519081016040528092919081815260200182805461042790610d9a565b80156104745780601f1061044957610100808354040283529160200191610474565b820191906000526020600020905b81548152906001019060200180831161045757829003601f168201915b5050505050905090565b60008061048961059f565b905060006104978286610518565b9050838110156104dc576040517f08c379a00000000000000000000000000000000000000000000000000000000081526004016104d390610ec3565b60405180910390fd5b6104e982868684036105a7565b60019250505092915050565b60008061050061059f565b905061050d8185856107fe565b600191505092915050565b6000600160008473ffffffffffffffffffffffffffffffffffffffff1673ffffffffffffffffffffffffffffffffffffffff16815260200190815260200160002060008373ffffffffffffffffffffffffffffffffffffffff1673ffffffffffffffffffffffffffffffffffffffff16815260200190815260200160002054905092915050565b600033905090565b600073ffffffffffffffffffffffffffffffffffffffff168373ffffffffffffffffffffffffffffffffffffffff161415610617576040517f08c379a000000000000000000000000000000000000000000000000000000000815260040161060e90610f55565b60405180910390fd5b600073ffffffffffffffffffffffffffffffffffffffff168273ffffffffffffffffffffffffffffffffffffffff161415610687576040517f08c379a000000000000000000000000000000000000000000000000000000000815260040161067e90610fe7565b60405180910390fd5b80600160008573ffffffffffffffffffffffffffffffffffffffff1673ffffffffffffffffffffffffffffffffffffffff16815260200190815260200160002060008473ffffffffffffffffffffffffffffffffffffffff1673ffffffffffffffffffffffffffffffffffffffff168152602001908152602001600020819055508173ffffffffffffffffffffffffffffffffffffffff168373ffffffffffffffffffffffffffffffffffffffff167f8c5be1e5ebec7d5bd14f71427d1e84f3dd0314c0f7b2291e5b200ac8c7c3b925836040516107659190610c59565b60405180910390a3505050565b600061077e8484610518565b90507fffffffffffffffffffffffffffffffffffffffffffffffffffffffffffffffff81146107f857818110156107ea576040517f08c379a00000000000000000000000000000000000000000000000000000000081526004016107e190611053565b60405180910390fd5b6107f784848484036105a7565b5b50505050565b600073ffffffffffffffffffffffffffffffffffffffff168373ffffffffffffffffffffffffffffffffffffffff16141561086e576040517f08c379a0000000000000000000000000000000000000000000000000000000008152600401610865906110e5565b60405180910390fd5b600073ffffffffffffffffffffffffffffffffffffffff168273ffffffffffffffffffffffffffffffffffffffff1614156108de576040517f08c379a00000000000000000000000000000000000000000000000000000000081526004016108d590611177565b60405180910390fd5b6108e9838383610a76565b60008060008573ffffffffffffffffffffffffffffffffffffffff1673ffffffffffffffffffffffffffffffffffffffff1681526020019081526020016000205490508181101561096f576040517f08c379a000000000000000000000000000000000000000000000000000000000815260040161096690611209565b60405180910390fd5b8181036000808673ffffffffffffffffffffffffffffffffffffffff1673ffffffffffffffffffffffffffffffffffffffff16815260200190815260200160002081905550816000808573ffffffffffffffffffffffffffffffffffffffff1673ffffffffffffffffffffffffffffffffffffffff168152602001908152602001600020600082825401925050819055508273ffffffffffffffffffffffffffffffffffffffff168473ffffffffffffffffffffffffffffffffffffffff167fddf252ad1be2c89b69c2b068fc378daa952ba7f163c4a11628f55a4df523b3ef84604051610a5d9190610c59565b60405180910390a3610a70848484610a7b565b50505050565b505050565b505050565b600081519050919050565b600082825260208201905092915050565b60005b83811015610aba578082015181840152602081019050610a9f565b83811115610ac9576000848401525b50505050565b6000601f19601f8301169050919050565b6000610aeb82610a80565b610af58185610a8b565b9350610b05818560208601610a9c565b610b0e81610acf565b840191505092915050565b60006020820190508181036000830152610b338184610ae0565b905092915050565b600080fd5b600073ffffffffffffffffffffffffffffffffffffffff82169050919050565b6000610b6b82610b40565b9050919050565b610b7b81610b60565b8114610b8657600080fd5b50565b600081359050610b9881610b72565b92915050565b6000819050919050565b610bb181610b9e565b8114610bbc57600080fd5b50565b600081359050610bce81610ba8565b92915050565b60008060408385031215610beb57610bea610b3b565b5b6000610bf985828601610b89565b9250506020610c0a85828601610bbf565b9150509250929050565b60008115159050919050565b610c2981610c14565b82525050565b6000602082019050610c446000830184610c20565b92915050565b610c5381610b9e565b82525050565b6000602082019050610c6e6000830184610c4a565b92915050565b600080600060608486031215610c8d57610c8c610b3b565b5b6000610c9b86828701610b89565b9350506020610cac86828701610b89565b9250506040610cbd86828701610bbf565b9150509250925092565b600060ff82169050919050565b610cdd81610cc7565b82525050565b6000602082019050610cf86000830184610cd4565b92915050565b600060208284031215610d1457610d13610b3b565b5b6000610d2284828501610b89565b91505092915050565b60008060408385031215610d4257610d41610b3b565b5b6000610d5085828601610b89565b9250506020610d6185828601610b89565b9150509250929050565b7f4e487b7100000000000000000000000000000000000000000000000000000000600052602260045260246000fd5b60006002820490506001821680610db257607f821691505b60208210811415610dc657610dc5610d6b565b5b50919050565b7f4e487b7100000000000000000000000000000000000000000000000000000000600052601160045260246000fd5b6000610e0682610b9e565b9150610e1183610b9e565b9250827fffffffffffffffffffffffffffffffffffffffffffffffffffffffffffffffff03821115610e4657610e45610dcc565b5b828201905092915050565b7f45524332303a2064656372656173656420616c6c6f77616e63652062656c6f7760008201527f207a65726f000000000000000000000000000000000000000000000000000000602082015250565b6000610ead602583610a8b565b9150610eb882610e51565b604082019050919050565b60006020820190508181036000830152610edc81610ea0565b9050919050565b7f45524332303a20617070726f76652066726f6d20746865207a65726f2061646460008201527f7265737300000000000000000000000000000000000000000000000000000000602082015250565b6000610f3f602483610a8b565b9150610f4a82610ee3565b604082019050919050565b60006020820190508181036000830152610f6e81610f32565b9050919050565b7f45524332303a20617070726f766520746f20746865207a65726f20616464726560008201527f7373000000000000000000000000000000000000000000000000000000000000602082015250565b6000610fd1602283610a8b565b9150610fdc82610f75565b604082019050919050565b6000602082019050818103600083015261100081610fc4565b9050919050565b7f45524332303a20696e73756666696369656e7420616c6c6f77616e6365000000600082015250565b600061103d601d83610a8b565b915061104882611007565b602082019050919050565b6000602082019050818103600083015261106c81611030565b9050919050565b7f45524332303a207472616e736665722066726f6d20746865207a65726f20616460008201527f6472657373000000000000000000000000000000000000000000000000000000602082015250565b60006110cf602583610a8b565b91506110da82611073565b604082019050919050565b600060208201905081810360008301526110fe816110c2565b9050919050565b7f45524332303a207472616e7366657220746f20746865207a65726f206164647260008201527f6573730000000000000000000000000000000000000000000000000000000000602082015250565b6000611161602383610a8b565b915061116c82611105565b604082019050919050565b6000602082019050818103600083015261119081611154565b9050919050565b7f45524332303a207472616e7366657220616d6f756e742065786365656473206260008201527f616c616e63650000000000000000000000000000000000000000000000000000602082015250565b60006111f3602683610a8b565b91506111fe82611197565b604082019050919050565b60006020820190508181036000830152611222816111e6565b905091905056fea26469706673582212203872af9a18cee550ad493de59be64567ff4e9cd3e9377e37188556936500e67664736f6c634300080a0033",
  "linkReferences": {},
  "deployedLinkReferences": {}
}